:100000000C9462000C946B030C9492030C948A0081
:100010000C948A000C948A000C948A000C948A0038
:100020000C948A000C948A000C948A000C948A0028
:100030000C948A000C948A000C948A000C948A0018
:100040000C94B9030C948A000C948A000C948A00D6
:100050000C948A000C948A000C948A000C948A00F8
:100060000C948A000C948A00000000080002010031
:100070000003040700000000000000000102040863
:100080001020408001020408102001020408102002
:10009000040404040404040402020202020203032E
:1000A00003030303000000002300260029000000D2
:1000B0000000250028002B0000000000240027007D
:1000C0002A00BD0111241FBECFEFD8E0DEBFCDBF97
:1000D00011E0A0E0B1E0E4E1FDE002C005900D9286
:1000E000A633B107D9F721E0A6E3B1E001C01D9224
:1000F000AD35B207E1F710E0C4ECD0E004C02297C0
:10010000FE010E948406C23CD107C9F70E94500636
:100110000C9488060C94000081E090E090933B01E1
:1001200080933A01089540E050E06CE870E081E08F
:100130000E944B0320E042E060E18CE391E00E94EA
:10014000860260E081E00E94CF0460E082E00E94CD
:10015000CF0460E083E00C94CF04CF93DF9340E0C2
:1001600060E08CE391E00E946C0264E071E08CE35B
:1001700091E00E94A50541E060E08CE391E00E94DF
:100180006C026FE071E08CE391E00E94A50581E0D4
:100190000E943E050197A1F08091380190913901AC
:1001A000019771F082E00E943E05019709F474C046
:1001B0008091380190913901029709F0DBC06CC041
:1001C00010923701109236018091360190913701DB
:1001D0008A3091053CF7099721F410923901109269
:1001E0003801C0913A01D0913B01C130D10551F5A0
:1001F0008CE391E00E94650240E060E08CE391E0D6
:100200000E946C0267E171E08CE391E00E94A50519
:1002100041E060E08CE391E00E946C0261E271E0F9
:100220008CE391E00E94A50568EE73E080E090E029
:100230000E94260410923B0110923A01D09339019A
:10024000C093380180913A0190913B01892BD1F400
:100250008CE391E00E94650240E060E08CE391E075
:100260000E946C0260913601709137014AE050E0C3
:100270008CE391E00E94470668EE73E080E090E036
:100280000E94260480913601909137010196909347
:1002900037018093360198CF89E090E09093370141
:1002A00080933601C2E0D0E0809136019091370111
:1002B00097FD60C0892B21F410923901109238010A
:1002C00080913A0190913B01019751F58CE391E0C7
:1002D0000E94650240E060E08CE391E00E946C02C5
:1002E00067E171E08CE391E00E94A50541E060E0E8
:1002F0008CE391E00E946C0261E271E08CE391E09A
:100300000E94A50568EE73E080E090E00E9426045C
:1003100010923B0110923A01D0933901C0933801F9
:1003200080913A0190913B01892BD1F48CE391E0CB
:100330000E94650240E060E08CE391E00E946C0264
:1003400060913601709137014AE050E08CE391E012
:100350000E94470668EE73E080E090E00E94260469
:1003600080913601909137010197909337018093E6
:1003700036019ACFDF91CF910895CF92EF920F93EC
:1003800088E0C82E99E0E92E0AE02BE04CE06DE011
:100390008CE391E00E9424030F91EF90CF90089599
:1003A000CF93DF93EC0160E08E810E94080581E02D
:1003B00090E00E94600461E08E810E94080581E067
:1003C00090E00E94600460E08E810E94080584E64F
:1003D00090E0DF91CF910C946004EF92FF920F9325
:1003E0001F93CF93DF938C01C0E0D0E0E62EF12C79
:1003F000B7010C2E02C0759567950A94E2F76170FB
:10040000F801EC0FFD1F87810E9408052196C4307A
:10041000D10571F7C801DF91CF911F910F91FF9026
:10042000EF900C94D001EF92FF920F931F93CF9314
:10043000DF938C01C0E0D0E0E62EF12CB7010C2E4A
:1004400002C0759567950A94E2F76170F801EC0FA8
:10045000FD1F87810E9408052196C830D10571F7DC
:10046000C801DF91CF911F910F91FF90EF900C94F5
:10047000D0011F93CF93DF93EC01162F642F8C8153
:100480000E9408058D818F3F19F060E00E940805E9
:100490008F85612F84FF06C0CE01DF91CF911F9120
:1004A0000C94130270E084E0759567958A95E1F7E6
:1004B000CE010E94ED01612FCE01DF91CF911F91FE
:1004C0000C94ED0140E00C94390261E00E9462025C
:1004D00080ED97E00C946004443008F043E0FC01A8
:1004E0002389421710F04FEF420FFC01E40FF11D7A
:1004F0002489260F2068622F0C946202FC01608917
:10050000262F2460208B6C600C9462020F931F9343
:10051000CF93DF93EC01423018F08F8588608F878E
:100520004B8B1C8A80E48D8B6E8B70E0605C7F4F00
:100530006F8B222329F0413019F48F8584608F87D7
:1005400061E08C810E94CF048D818F3F19F061E0C2
:100550000E94CF0461E08E810E94CF0400E010E091
:100560008F8584FF03C088E090E002C084E090E0C3
:100570000817190754F4FE01E00FF11F61E08781AD
:100580000E94CF040F5F1F4FEBCF80E593EC0E94DA
:10059000600460E08C810E94080560E08E810E940A
:1005A00008058D818F3F19F060E00E9408056F8576
:1005B00064FD1DC063E0CE010E94ED0184E991E17C
:1005C0000E94600463E0CE010E94ED0184E991E1A4
:1005D0000E94600463E0CE010E94ED0186E990E094
:1005E0000E94600462E0CE010E94ED0116C06062CC
:1005F000CE010E94620284E991E10E9460046F854D
:100600006062CE010E94620286E990E00E9460046E
:100610006F856062CE010E9462026F856062CE01CA
:100620000E94620284E0888BCE010E947E02CE018D
:100630000E94650282E0898B66E0CE01DF91CF9156
:100640001F910F910C946202CF92EF920F93FC01D5
:100650001382128282E391E09183808364838FEF1F
:100660008583468327830087E186C28613861486A6
:1006700015861686178620E041E060E1CF010F91D4
:10068000EF90CF900C94860241E00E94390281E005
:1006900090E0089508958230E8F4E82FF0E0EE0F3E
:1006A000FF1FE050FF4F71836083813041F08091E4
:1006B00069008C7F842B80936900E89A089580916B
:1006C0006900440F551F440F551F837F842B80936F
:1006D0006900E99A08951F920F920FB60F921124A4
:1006E0002F933F934F935F936F937F938F939F933A
:1006F000AF93BF93EF93FF93E0910001F09101015D
:100700000995FF91EF91BF91AF919F918F917F914B
:100710006F915F914F913F912F910F900FBE0F906E
:100720001F9018951F920F920FB60F9211242F93BE
:100730003F934F935F936F937F938F939F93AF9369
:10074000BF93EF93FF93E0910201F09103010995AC
:10075000FF91EF91BF91AF919F918F917F916F9199
:100760005F914F913F912F910F900FBE0F901F906F
:1007700018951F920F920FB60F9211242F933F934B
:100780008F939F93AF93BF938091550190915601A2
:10079000A0915701B09158013091540123E0230FEB
:1007A0002D3720F40196A11DB11D05C026E8230FA9
:1007B0000296A11DB11D2093540180935501909381
:1007C0005601A0935701B09358018091590190911F
:1007D0005A01A0915B01B0915C010196A11DB11D70
:1007E0008093590190935A01A0935B01B0935C01EF
:1007F000BF91AF919F918F913F912F910F900FBE1D
:100800000F901F9018953FB7F894809159019091DF
:100810005A01A0915B01B0915C0126B5A89B05C06F
:100820002F3F19F00196A11DB11D3FBF6627782FFC
:10083000892F9A2F620F711D811D911D42E0660F55
:10084000771F881F991F4A95D1F708958F929F921D
:10085000AF92BF92CF92DF92EF92FF926B017C0139
:100860000E9403044B015C01C114D104E104F104B2
:10087000F1F00E945F060E940304681979098A0951
:100880009B09683E73408105910570F321E0C21A0F
:10089000D108E108F10888EE880E83E0981EA11CBB
:1008A000B11CC114D104E104F10429F7DDCFFF909C
:1008B000EF90DF90CF90BF90AF909F908F90089572
:1008C0008230910538F0880F991F880F991F05977E
:1008D0000197F1F70895789484B5826084BD84B55A
:1008E000816084BD85B5826085BD85B5816085BD2B
:1008F000EEE6F0E0808181608083E1E8F0E0108244
:10090000808182608083808181608083E0E8F0E084
:10091000808181608083E1EBF0E08081846080836E
:10092000E0EBF0E0808181608083EAE7F0E08081A5
:100930008460808380818260808380818160808305
:100940008081806880831092C1000895833081F097
:1009500028F4813099F08230A1F008958730A9F011
:100960008830B9F08430D1F4809180008F7D03C04D
:10097000809180008F7780938000089584B58F7771
:1009800002C084B58F7D84BD08958091B0008F77BB
:1009900003C08091B0008F7D8093B0000895CF9305
:1009A000DF9390E0FC01E458FF4F2491FC01E057F5
:1009B000FF4F8491882349F190E0880F991FFC0133
:1009C000E854FF4FA591B49182559F4FFC01C5910A
:1009D000D4919FB7611108C0F8948C91209582231F
:1009E0008C93888182230AC0623051F4F8948C91F0
:1009F000322F309583238C938881822B888304C087
:100A0000F8948C91822B8C939FBFDF91CF910895A6
:100A10000F931F93CF93DF931F92CDB7DEB7282F8D
:100A200030E0F901E859FF4F8491F901E458FF4F94
:100A30001491F901E057FF4F04910023C9F0882376
:100A400021F069830E94A6046981E02FF0E0EE0F97
:100A5000FF1FE255FF4FA591B4919FB7F8948C9179
:100A6000611103C01095812301C0812B8C939FBF1E
:100A70000F90DF91CF911F910F910895CF93DF9346
:100A8000282F30E0F901E859FF4F8491F901E4582B
:100A9000FF4FD491F901E057FF4FC491CC2391F05F
:100AA00081110E94A604EC2FF0E0EE0FFF1FEC5521
:100AB000FF4FA591B4912C912D2381E090E021F47A
:100AC00080E002C080E090E0DF91CF910895CF9266
:100AD000DF92EF92FF920F931F93CF93DF937C01EE
:100AE0006A01EB0100E010E00C151D0571F0699141
:100AF000D701ED91FC910190F081E02DC70109959E
:100B0000892B19F00F5F1F4FEFCFC801DF91CF91F5
:100B10001F910F91FF90EF90DF90CF900895611596
:100B2000710581F0DB010D900020E9F7AD01415026
:100B30005109461B570BDC01ED91FC910280F381BA
:100B4000E02D099480E090E008950C948F05DC017D
:100B5000ED91FC910190F081E02D09948F929F928C
:100B6000AF92BF92DF92EF92FF920F931F93CF93BA
:100B7000DF93CDB7DEB7A1970FB6F894DEBF0FBEF7
:100B8000CDBF7C01F42FD52ECB0119A2223008F461
:100B90002AE08E010F5D1F4F822E912CA12CB12CCB
:100BA0006F2F7D2DA50194010E946006F22FD32E98
:100BB000CA01015011096A3014F4E0E301C0E7E30F
:100BC000E60FD801EC93232B242B252B49F7B801F2
:100BD000C7010E948F05A1960FB6F894DEBF0FBE25
:100BE000CDBFDF91CF911F910F91FF90EF90DF90DC
:100BF000BF90AF909F908F900895CF92DF92EF9229
:100C0000FF920F931F93CF93DF93EC016A017B0157
:100C10002115310579F4E881F9810190F081E02D09
:100C2000642FDF91CF911F910F91FF90EF90DF9094
:100C3000CF9009942A303105E9F477FF1AC06DE2AC
:100C40000E94A7058C0144275527BA014C195D095C
:100C50006E097F092AE0CE010E94AE05800F911F28
:100C6000DF91CF911F910F91FF90EF90DF90CF9088
:100C700008952AE0B701A601CE01DF91CF911F911F
:100C80000F91FF90EF90DF90CF900C94AE059A01FA
:100C9000AB01662757FD6095762F0C94FD050895EE
:100CA0000E946B040E944F060E949300C0E0D0E0B7
:100CB0000E94AD002097E1F30E940000F9CF089553
:100CC000A1E21A2EAA1BBB1BFD010DC0AA1FBB1F50
:100CD000EE1FFF1FA217B307E407F50720F0A21BC2
:100CE000B30BE40BF50B661F771F881F991F1A942F
:100CF00069F760957095809590959B01AC01BD0159
:100D0000CF010895EE0FFF1F0590F491E02D099497
:040D1000F894FFCF85
:100D14004A034A0370756C736520706172610069DF
:100D24006E69636961720065737461646F206465E0
:100D340000696E74657272757063696F6E0000008D
:060D4400000044036705F6
:107800000C94343C0C94513C0C94513C0C94513CE1
:107810000C94513C0C94513C0C94513C0C94513CB4
:107820000C94513C0C94513C0C94513C0C94513CA4
:107830000C94513C0C94513C0C94513C0C94513C94
:107840000C94513C0C94513C0C94513C0C94513C84
:107850000C94513C0C94513C0C94513C0C94513C74
:107860000C94513C0C94513C11241FBECFEFD8E036
:10787000DEBFCDBF11E0A0E0B1E0ECE9FFE702C060
:1078800005900D92A230B107D9F712E0A2E0B1E065
:1078900001C01D92AD30B107E1F70E942D3D0C945F
:1078A000CC3F0C94003C982F959595959595959582
:1078B000905D8F708A307CF0282F295A8091C0000B
:1078C00085FFFCCF9093C6008091C00085FFFCCF60
:1078D0002093C6000895282F205DF0CF982F809127
:1078E000C00085FFFCCF9093C6000895EF92FF92F1
:1078F0000F931F93EE24FF2487018091C00087FD22
:1079000017C00894E11CF11C011D111D81E4E8164B
:1079100082E4F8068FE0080780E0180770F3E09132
:107920000401F091050109958091C00087FFE9CF1E
:107930008091C6001F910F91FF90EF9008950E94D3
:10794000763C982F8091C00085FFFCCF9093C600B5
:1079500091362CF490330CF09053892F089597555D
:10796000892F08951F930E949F3C182F0E949F3CCF
:107970001295107F810F1F9108951F93182F882350
:1079800021F00E94763C1150E1F71F9108951F935A
:10799000182F0E94763C803249F0809103018F5F5E
:1079A000809303018530C1F01F9108958091C0003C
:1079B00085FFFCCF84E18093C6008091C00085FFE5
:1079C000FCCF1093C6008091C00085FFFCCF80E102
:1079D0008093C6001F910895E0910401F091050184
:1079E00009951F9108950E94763C803241F0809164
:1079F00003018F5F80930301853081F008958091AA
:107A0000C00085FFFCCF84E18093C6008091C00058
:107A100085FFFCCF80E18093C6000895E0910401CA
:107A2000F09105010995089540E951E08823A1F0FE
:107A30002D9A28EE33E0FA013197F1F721503040CA
:107A4000D1F72D9828EE33E0FA013197F1F7215064
:107A50003040D1F7815061F708953F924F925F9285
:107A60006F927F928F929F92AF92BF92CF92DF924E
:107A7000EF92FF920F931F93CF93DF93000080E16B
:107A80008093C4001092C50088E18093C10086E015
:107A90008093C2005098589A259A81E00E94143D24
:107AA00024E1F22E9EE1E92E85E9D82E0FE0C02ECA
:107AB00010E1B12EAA24A394B1E49B2EA6E58A2E50
:107AC000F2E57F2EE0E26E2E79E4572E63E5462E36
:107AD00050E5352E0E94763C8033B1F18133B9F107
:107AE000803409F46FC0813409F476C0823409F41B
:107AF00085C0853409F488C0803531F1823521F1A3
:107B0000813511F1853509F485C0863509F48DC0BC
:107B1000843609F496C0843709F403C1853709F423
:107B200072C1863709F466C0809103018F5F80932C
:107B30000301853079F6E0910401F0910501099582
:107B40000E94763C803351F60E94F33CC3CF0E94E2
:107B5000763C803249F78091C00085FFFCCFF092DF
:107B6000C6008091C00085FFFCCF9092C600809136
:107B7000C00085FFFCCF8092C6008091C00085FFC9
:107B8000FCCF7092C6008091C00085FFFCCF609250
:107B9000C6008091C00085FFFCCF5092C600809146
:107BA000C00085FFFCCF4092C6008091C00085FFD9
:107BB000FCCF3092C6008091C00085FFFCCFB09210
:107BC000C60088CF0E94763C863808F4BDCF0E945C
:107BD000763C0E94F33C7ECF0E94763C803809F4CC
:107BE0009CC0813809F40BC1823809F43CC1883942
:107BF00009F48FC080E00E94C73C6CCF84E10E94F2
:107C0000BD3C0E94F33C66CF85E00E94BD3C0E94D3
:107C1000F33C60CF0E94763C809306010E94763C44
:107C2000809307010E94F33C55CF0E94763C80333D
:107C300009F41DC183E00E94BD3C80E00E94C73C66
:107C400049CF0E94763C809309020E94763C809343
:107C5000080280910C028E7F80930C020E94763C79
:107C6000853409F415C18091080290910902892B8D
:107C700089F000E010E00E94763CF801E85FFE4FDA
:107C800080830F5F1F4F80910802909109020817AF
:107C9000190788F30E94763C803209F045CF809125
:107CA0000C0280FF01C16091060170910701660F0F
:107CB000771F7093070160930601A0910802B091AD
:107CC00009021097C9F0E8E0F1E09B01AD014E0F09
:107CD0005F1FF999FECF32BD21BD819180BDFA9A17
:107CE000F99A2F5F3F4FE417F50799F76A0F7B1F4B
:107CF00070930701609306018091C00085FFFCCF5F
:107D0000F092C6008091C00085FFFCCFB092C60003
:107D1000E1CE83E00E94C73CDDCE82E00E94C73CFA
:107D2000D9CE0E94763C809309020E94763C8093D3
:107D300008028091060190910701880F991F909386
:107D40000701809306010E94763C853409F4A6C0A1
:107D500080910C028E7F80930C020E94763C8032D0
:107D600009F0B8CE8091C00085FFFCCFF092C6002C
:107D7000609108027091090261157105B9F140E046
:107D800050E080910C02A82FA170B82FB27011C0E2
:107D9000BB2309F45CC0E0910601F0910701319624
:107DA000F0930701E09306014F5F5F4F46175707B7
:107DB000E8F4AA2369F3F999FECF209106013091E6
:107DC000070132BD21BDF89A90B58091C00085FFB2
:107DD000FCCF9093C6002F5F3F4F30930701209355
:107DE00006014F5F5F4F4617570718F38091C00099
:107DF00085FDE5CE8091C00085FFF8CFE0CE81E023
:107E00000E94C73C67CE0E94763C803209F08CCE3F
:107E10008091C00085FFFCCFF092C6008091C00029
:107E200085FFFCCFE092C6008091C00085FFFCCFAB
:107E3000D092C6008091C00085FFFCCFC092C600E2
:107E40008091C00085FFFCCFB092C60043CEE09188
:107E50000601F091070194918091C00085FFFCCF4D
:107E60009093C6009CCF80E10E94C73C33CE0E9415
:107E7000763C0E94763C182F0E94763C112309F430
:107E800083C0113009F484C08FE00E94C73C22CE29
:107E900080910C02816080930C02E5CE80910C02EF
:107EA000816080930C0259CF809107018823880F4D
:107EB000880B8A2180930B02809106019091070123
:107EC000880F991F90930701809306018091080203
:107ED00080FF09C080910802909109020196909359
:107EE000090280930802F894F999FECF1127E091D6
:107EF0000601F0910701C8E0D1E08091080290915D
:107F00000902103091F40091570001700130D9F34B
:107F100003E000935700E89500915700017001308D
:107F2000D9F301E100935700E89509901990009169
:107F3000570001700130D9F301E000935700E89534
:107F40001395103498F011270091570001700130FB
:107F5000D9F305E000935700E895009157000170B0
:107F60000130D9F301E100935700E895329602976A
:107F700009F0C7CF103011F00296E5CF112480919F
:107F8000C00085FFB9CEBCCE8EE10E94C73CA2CD19
:0C7F900085E90E94C73C9ECDF894FFCF0D
:027F9C00800063
:040000030000780081
:00000001FF
