:100000000C9461000C9473000C9473000C947300B6
:100010000C9473000C9473000C9473000C94730094
:100020000C9473000C9473000C9473000C94730084
:100030000C9473000C9473000C9473000C94730074
:100040000C949C010C9473000C9473000C9473003A
:100050000C9473000C9473000C9473000C94730054
:100060000C9473000C94730000000008000201005F
:100070000003040700000000000000000102040863
:100080001020408001020408102001020408102002
:10009000040404040404040402020202020203032E
:1000A00003030303000000002300260029000000D2
:1000B0000000250028002B0000000000240027007D
:1000C0002A0011241FBECFEFD8E0DEBFCDBF21E054
:1000D000A0E0B1E001C01D92AB30B207E1F70E9491
:1000E00040030C9450030C94000060E081E00E94F7
:1000F000A70260E080E00E94A70261E082E00E9427
:10010000A70261E083E00E94A70261E084E00E9410
:10011000A70261E085E00C94A70281E00E9416032B
:10012000019741F48091000190910101893091057E
:100130000CF4E9C080E00E941603019741F480911D
:10014000000190910101181619060CF4E8C0809185
:10015000000190910101892B81F460E082E00E940E
:10016000E00260E083E00E94E00260E084E00E9440
:10017000E00260E085E00E94E00280910001909141
:100180000101019781F460E082E00E94E00260E0FA
:1001900083E00E94E00260E084E00E94E00261E00F
:1001A00085E00E94E0028091000190910101029798
:1001B00081F460E082E00E94E00260E083E00E945F
:1001C000E00261E084E00E94E00260E085E00E94DD
:1001D000E0028091000190910101039781F460E0B9
:1001E00082E00E94E00260E083E00E94E00261E0C1
:1001F00084E00E94E00261E085E00E94E0028091DC
:10020000000190910101049781F460E082E00E9476
:10021000E00261E083E00E94E00260E084E00E948E
:10022000E00260E085E00E94E00280910001909190
:100230000101059781F460E082E00E94E00261E044
:1002400083E00E94E00260E084E00E94E00261E05E
:1002500085E00E94E00280910001909101010697E3
:1002600081F460E082E00E94E00261E083E00E94AD
:10027000E00261E084E00E94E00260E085E00E942C
:10028000E0028091000190910101079781F460E004
:1002900082E00E94E00261E083E00E94E00261E00F
:1002A00084E00E94E00261E085E00E94E00280912B
:1002B000000190910101089781F461E082E00E94C1
:1002C000E00260E083E00E94E00260E084E00E94DF
:1002D000E00260E085E00E94E002809100019091E0
:1002E0000101099741F561E082E00E94E00260E0CF
:1002F00083E00E94E00260E084E00E94E00261E0AE
:1003000085E00C94E0020196909301018093000136
:1003100066E272E080E090E00E9409020BCF019754
:10032000909301018093000166E272E080E090E02A
:100330000E9409020CCF08951F920F920FB60F92E0
:1003400011242F933F938F939F93AF93BF938091EB
:10035000030190910401A0910501B0910601309133
:10036000020123E0230F2D3720F40196A11DB11DBA
:1003700005C026E8230F0296A11DB11D209302019E
:100380008093030190930401A0930501B0930601AB
:100390008091070190910801A0910901B0910A0193
:1003A0000196A11DB11D8093070190930801A093B0
:1003B0000901B0930A01BF91AF919F918F913F9135
:1003C0002F910F900FBE0F901F9018953FB7F89484
:1003D0008091070190910801A0910901B0910A0153
:1003E00026B5A89B05C02F3F19F00196A11DB11D90
:1003F0003FBF6627782F892F9A2F620F711D811DAD
:10040000911D42E0660F771F881F991F4A95D1F70B
:1004100008958F929F92AF92BF92CF92DF92EF9208
:10042000FF926B017C010E94E6014B015C01C1144B
:10043000D104E104F104F1F00E944F030E94E601AF
:10044000681979098A099B09683E734081059105FD
:1004500070F321E0C21AD108E108F10888EE880E95
:1004600083E0981EA11CB11CC114D104E104F10465
:1004700029F7DDCFFF90EF90DF90CF90BF90AF9046
:100480009F908F900895789484B5826084BD84B5E0
:10049000816084BD85B5826085BD85B5816085BD7F
:1004A000EEE6F0E0808181608083E1E8F0E0108298
:1004B000808182608083808181608083E0E8F0E0D9
:1004C000808181608083E1EBF0E0808184608083C3
:1004D000E0EBF0E0808181608083EAE7F0E08081FA
:1004E000846080838081826080838081816080835A
:1004F0008081806880831092C1000895833081F0EC
:1005000028F4813099F08230A1F008958730A9F065
:100510008830B9F08430D1F4809180008F7D03C0A1
:10052000809180008F7780938000089584B58F77C5
:1005300002C084B58F7D84BD08958091B0008F770F
:1005400003C08091B0008F7D8093B0000895CF9359
:10055000DF9390E0FC01E458FF4F2491FC01E05749
:10056000FF4F8491882349F190E0880F991FFC0187
:10057000E854FF4FA591B49182559F4FFC01C5915E
:10058000D4919FB7611108C0F8948C912095822373
:100590008C93888182230AC0623051F4F8948C9144
:1005A000322F309583238C938881822B888304C0DB
:1005B000F8948C91822B8C939FBFDF91CF910895FB
:1005C0000F931F93CF93DF931F92CDB7DEB7282FE2
:1005D00030E0F901E859FF4F8491F901E458FF4FE9
:1005E0001491F901E057FF4F04910023C9F08823CB
:1005F00021F069830E947E026981E02FF0E0EE0F16
:10060000FF1FE255FF4FA591B4919FB7F8948C91CD
:10061000611103C01095812301C0812B8C939FBF72
:100620000F90DF91CF911F910F910895CF93DF939A
:10063000282F30E0F901E859FF4F8491F901E4587F
:10064000FF4FD491F901E057FF4FC491CC2391F0B3
:1006500081110E947E02EC2FF0E0EE0FFF1FEC559F
:10066000FF4FA591B4912C912D2381E090E021F4CE
:1006700080E002C080E090E0DF91CF91089508957E
:100680000E9443020E943F030E947500C0E0D0E038
:100690000E948D002097E1F30E940000F9CF089599
:0406A000F894FFCFFC
:107800000C94343C0C94513C0C94513C0C94513CE1
:107810000C94513C0C94513C0C94513C0C94513CB4
:107820000C94513C0C94513C0C94513C0C94513CA4
:107830000C94513C0C94513C0C94513C0C94513C94
:107840000C94513C0C94513C0C94513C0C94513C84
:107850000C94513C0C94513C0C94513C0C94513C74
:107860000C94513C0C94513C11241FBECFEFD8E036
:10787000DEBFCDBF11E0A0E0B1E0ECE9FFE702C060
:1078800005900D92A230B107D9F712E0A2E0B1E065
:1078900001C01D92AD30B107E1F70E942D3D0C945F
:1078A000CC3F0C94003C982F959595959595959582
:1078B000905D8F708A307CF0282F295A8091C0000B
:1078C00085FFFCCF9093C6008091C00085FFFCCF60
:1078D0002093C6000895282F205DF0CF982F809127
:1078E000C00085FFFCCF9093C6000895EF92FF92F1
:1078F0000F931F93EE24FF2487018091C00087FD22
:1079000017C00894E11CF11C011D111D81E4E8164B
:1079100082E4F8068FE0080780E0180770F3E09132
:107920000401F091050109958091C00087FFE9CF1E
:107930008091C6001F910F91FF90EF9008950E94D3
:10794000763C982F8091C00085FFFCCF9093C600B5
:1079500091362CF490330CF09053892F089597555D
:10796000892F08951F930E949F3C182F0E949F3CCF
:107970001295107F810F1F9108951F93182F882350
:1079800021F00E94763C1150E1F71F9108951F935A
:10799000182F0E94763C803249F0809103018F5F5E
:1079A000809303018530C1F01F9108958091C0003C
:1079B00085FFFCCF84E18093C6008091C00085FFE5
:1079C000FCCF1093C6008091C00085FFFCCF80E102
:1079D0008093C6001F910895E0910401F091050184
:1079E00009951F9108950E94763C803241F0809164
:1079F00003018F5F80930301853081F008958091AA
:107A0000C00085FFFCCF84E18093C6008091C00058
:107A100085FFFCCF80E18093C6000895E0910401CA
:107A2000F09105010995089540E951E08823A1F0FE
:107A30002D9A28EE33E0FA013197F1F721503040CA
:107A4000D1F72D9828EE33E0FA013197F1F7215064
:107A50003040D1F7815061F708953F924F925F9285
:107A60006F927F928F929F92AF92BF92CF92DF924E
:107A7000EF92FF920F931F93CF93DF93000080E16B
:107A80008093C4001092C50088E18093C10086E015
:107A90008093C2005098589A259A81E00E94143D24
:107AA00024E1F22E9EE1E92E85E9D82E0FE0C02ECA
:107AB00010E1B12EAA24A394B1E49B2EA6E58A2E50
:107AC000F2E57F2EE0E26E2E79E4572E63E5462E36
:107AD00050E5352E0E94763C8033B1F18133B9F107
:107AE000803409F46FC0813409F476C0823409F41B
:107AF00085C0853409F488C0803531F1823521F1A3
:107B0000813511F1853509F485C0863509F48DC0BC
:107B1000843609F496C0843709F403C1853709F423
:107B200072C1863709F466C0809103018F5F80932C
:107B30000301853079F6E0910401F0910501099582
:107B40000E94763C803351F60E94F33CC3CF0E94E2
:107B5000763C803249F78091C00085FFFCCFF092DF
:107B6000C6008091C00085FFFCCF9092C600809136
:107B7000C00085FFFCCF8092C6008091C00085FFC9
:107B8000FCCF7092C6008091C00085FFFCCF609250
:107B9000C6008091C00085FFFCCF5092C600809146
:107BA000C00085FFFCCF4092C6008091C00085FFD9
:107BB000FCCF3092C6008091C00085FFFCCFB09210
:107BC000C60088CF0E94763C863808F4BDCF0E945C
:107BD000763C0E94F33C7ECF0E94763C803809F4CC
:107BE0009CC0813809F40BC1823809F43CC1883942
:107BF00009F48FC080E00E94C73C6CCF84E10E94F2
:107C0000BD3C0E94F33C66CF85E00E94BD3C0E94D3
:107C1000F33C60CF0E94763C809306010E94763C44
:107C2000809307010E94F33C55CF0E94763C80333D
:107C300009F41DC183E00E94BD3C80E00E94C73C66
:107C400049CF0E94763C809309020E94763C809343
:107C5000080280910C028E7F80930C020E94763C79
:107C6000853409F415C18091080290910902892B8D
:107C700089F000E010E00E94763CF801E85FFE4FDA
:107C800080830F5F1F4F80910802909109020817AF
:107C9000190788F30E94763C803209F045CF809125
:107CA0000C0280FF01C16091060170910701660F0F
:107CB000771F7093070160930601A0910802B091AD
:107CC00009021097C9F0E8E0F1E09B01AD014E0F09
:107CD0005F1FF999FECF32BD21BD819180BDFA9A17
:107CE000F99A2F5F3F4FE417F50799F76A0F7B1F4B
:107CF00070930701609306018091C00085FFFCCF5F
:107D0000F092C6008091C00085FFFCCFB092C60003
:107D1000E1CE83E00E94C73CDDCE82E00E94C73CFA
:107D2000D9CE0E94763C809309020E94763C8093D3
:107D300008028091060190910701880F991F909386
:107D40000701809306010E94763C853409F4A6C0A1
:107D500080910C028E7F80930C020E94763C8032D0
:107D600009F0B8CE8091C00085FFFCCFF092C6002C
:107D7000609108027091090261157105B9F140E046
:107D800050E080910C02A82FA170B82FB27011C0E2
:107D9000BB2309F45CC0E0910601F0910701319624
:107DA000F0930701E09306014F5F5F4F46175707B7
:107DB000E8F4AA2369F3F999FECF209106013091E6
:107DC000070132BD21BDF89A90B58091C00085FFB2
:107DD000FCCF9093C6002F5F3F4F30930701209355
:107DE00006014F5F5F4F4617570718F38091C00099
:107DF00085FDE5CE8091C00085FFF8CFE0CE81E023
:107E00000E94C73C67CE0E94763C803209F08CCE3F
:107E10008091C00085FFFCCFF092C6008091C00029
:107E200085FFFCCFE092C6008091C00085FFFCCFAB
:107E3000D092C6008091C00085FFFCCFC092C600E2
:107E40008091C00085FFFCCFB092C60043CEE09188
:107E50000601F091070194918091C00085FFFCCF4D
:107E60009093C6009CCF80E10E94C73C33CE0E9415
:107E7000763C0E94763C182F0E94763C112309F430
:107E800083C0113009F484C08FE00E94C73C22CE29
:107E900080910C02816080930C02E5CE80910C02EF
:107EA000816080930C0259CF809107018823880F4D
:107EB000880B8A2180930B02809106019091070123
:107EC000880F991F90930701809306018091080203
:107ED00080FF09C080910802909109020196909359
:107EE000090280930802F894F999FECF1127E091D6
:107EF0000601F0910701C8E0D1E08091080290915D
:107F00000902103091F40091570001700130D9F34B
:107F100003E000935700E89500915700017001308D
:107F2000D9F301E100935700E89509901990009169
:107F3000570001700130D9F301E000935700E89534
:107F40001395103498F011270091570001700130FB
:107F5000D9F305E000935700E895009157000170B0
:107F60000130D9F301E100935700E895329602976A
:107F700009F0C7CF103011F00296E5CF112480919F
:107F8000C00085FFB9CEBCCE8EE10E94C73CA2CD19
:0C7F900085E90E94C73C9ECDF894FFCF0D
:027F9C00800063
:040000030000780081
:00000001FF
