:100000000C9462000C948A000C948A000C948A0070
:100010000C948A000C948A000C948A000C948A0038
:100020000C948A000C948A000C948A000C948A0028
:100030000C948A000C948A000C948A000C948A0018
:100040000C9458030C948A000C948A000C948A0037
:100050000C948A000C948A000C948A000C948A00F8
:100060000C948A000C948A000000000024002700F1
:100070002A0000000000250028002B0000000000DE
:1000800023002600290004040404040404040202DA
:100090000202020203030303030301020408102007
:1000A0004080010204081020010204081020000012
:1000B0000008000201000003040700000000000027
:1000C0000000EE0511241FBECFEFD8E0DEBFCDBF8C
:1000D00011E0A0E0B1E0E6EDFCE002C005900D9279
:1000E000A035B107D9F721E0A0E5B1E001C01D922C
:1000F000A738B207E1F710E0C2E6D0E004C02197CC
:10010000FE010E946306C136D107C9F70E94A2030F
:100110000C9469060C940000AF92BF92CF92DF92CC
:10012000EF92FF920F931F93CF93DF936C017B01AC
:100130008B01040F151FEB015E01AE18BF08C0173D
:10014000D10759F06991D601ED91FC910190F081B0
:10015000E02DC6010995892B79F7C501DF91CF9173
:100160001F910F91FF90EF90DF90CF90BF90AF90D5
:100170000895833081F028F4813099F08230A9F01D
:1001800008958730A9F08830C9F08430B1F48091A7
:1001900080008F7D03C0809180008F7780938000E6
:1001A000089584B58F7784BD089584B58F7DFBCF86
:1001B0008091B0008F778093B00008958091B00057
:1001C0008F7DF9CFCF93DF93282F30E0F901E255EF
:1001D000FF4F8491F901E656FF4FD491F901EA5798
:1001E000FF4FC491CC23A1F081110E94B900EC2FE4
:1001F000F0E0EE0FFF1FE458FF4FA591B491EC9192
:10020000ED2381E090E009F480E0DF91CF91089543
:1002100080E090E0FACF1F93CF93DF93282F30E058
:10022000F901E255FF4F8491F901E656FF4FD49151
:10023000F901EA57FF4FC491CC23A9F0162F811181
:100240000E94B900EC2FF0E0EE0FFF1FEE58FF4FB9
:10025000A591B4918FB7F894EC91111108C0D09585
:10026000DE23DC938FBFDF91CF911F910895DE2BAA
:10027000F8CFCF93DF9390E0FC01E656FF4F249137
:100280008A579F4FFC0184918823D1F090E0880F1A
:10029000991FFC01E859FF4FA591B491FC01EE585C
:1002A000FF4FC591D49161110EC09FB7F8948C9106
:1002B000E22FE0958E238C932881E223E8839FBF71
:1002C000DF91CF9108958FB7F894EC91E22BEC93E6
:1002D0008FBFF6CF2FB7F8946091550170915601FA
:1002E00080915701909158012FBF0895089590E093
:1002F00080E008958F929F92AF92BF920F931F93C9
:10030000CF93DF93CDB7DEB7A1970FB6F894DEBFDA
:100310000FBECDBF19A2423008F44AE08E010F5D36
:100320001F4F842E912CB12CA12CA50194010E9469
:100330002B06E62FB901CA01EA3044F5E05DD80189
:10034000EE938D01232B242B252B79F790E080E071
:10035000109769F0FD0101900020E9F73197AF0196
:100360004A1B5B0BBD018FE691E00E948C00A196B9
:100370000FB6F894DEBF0FBECDBFDF91CF911F91B6
:100380000F91BF90AF909F908F900895E95CD7CF69
:10039000FC0101900020E9F73197AF01481B590B90
:1003A000BC018FE691E00C948C00CF93DF93EC01BD
:1003B00060E08E810E940B0161E08E810E940B0142
:1003C00060E08E810E940B018BE891E00197F1F7CC
:1003D000DF91CF910895CF92DF92EF92FF920F932A
:1003E0001F93CF93DF936C017C0187E0E80EF11C33
:1003F000D0E0C0E0062F10E0B8010C2E02C07595C9
:1004000067950A94E2F76170F70181917F010E947C
:100410000B012196C430D10579F7C601DF91CF9148
:100420001F910F91FF90EF90DF90CF900C94D5012A
:10043000CF92DF92EF92FF920F931F93CF93DF93B0
:10044000EC01F62E642F8C810E940B018D818F3F71
:1004500019F060E00E940B010F2D10E08F8584FFE2
:1004600025C06E0187E0C80ED11CF12CE12CB8012B
:100470000E2C02C0759567950A94E2F76170F6013B
:1004800081916F010E940B01FFEFEF1AFF0A88E0D4
:10049000E816F10461F7CE01DF91CF911F910F9122
:1004A000FF90EF90DF90CF900C94D501B80184E0DD
:1004B000759567958A95E1F7CE010E94EB016F2D46
:1004C000CE01DF91CF911F910F91FF90EF90DF90C0
:1004D000CF900C94EB0140E0682F8FE691E00C94F4
:1004E000180281E00E946B028BE39FE10197F1F714
:1004F0000895CF93DF93823029F490917E01986024
:1005000090937E01809382011092830180E4809316
:10051000840180E18093850180E58093860161E01C
:10052000809173010E943901809174018F3F19F00D
:1005300061E00E94390161E0809175010E943901FA
:10054000CFE6D1E09E012F56314080917E0184FD9F
:100550000BC084E090E021962817390744F461E04D
:100560008E810E943901EECF88E090E0F4CF8BE3DA
:100570009DE00197F1F760E0809173010E940B010B
:1005800060E0809175010E940B01809174018F3FA2
:1005900019F060E00E940B0180917E0184FD34C05F
:1005A00063E08FE691E00E94EB01CBE4D6E4CE015C
:1005B0000197F1F763E08FE691E00E94EB0121974C
:1005C000F1F763E08FE691E00E94EB0183E592E0B2
:1005D0000197F1F762E08FE691E00E94EB018091D4
:1005E0007E0180620E946B0284E080937F018CE038
:1005F0000E946B020E94710282E08093800186E07B
:10060000DF91CF910C946B0280620E946B028BE4AD
:1006100096E40197F1F780917E0180620E946B025F
:1006200083E592E00197F1F780917E0180620E945C
:100630006B02D5CF90918201691710F06FEF690FAF
:10064000E62FF0E0E159FE4F9489890F80680C9401
:100650006B0241E00E94180281E090E00895CF9281
:10066000DF92EF92FF926C01990FEE08FF08F7FE00
:1006700016C041E06DE28FE691E00E941802662705
:100680007727CB016C197D098E099F094AE00E94EA
:100690007A010196FF90EF90DF90CF9008954AE0A5
:1006A000C701B601FF90EF90DF90CF900C947A01D4
:1006B0001F920F920FB60F9211242F933F938F9397
:1006C0009F93AF93BF938091550190915601A09154
:1006D0005701B09158013091540123E0230F2D3779
:1006E00058F50196A11DB11D209354018093550129
:1006F00090935601A0935701B093580180915001F7
:1007000090915101A0915201B09153010196A11D08
:10071000B11D8093500190935101A0935201B09369
:100720005301BF91AF919F918F913F912F910F9066
:100730000FBE0F901F90189526E8230F0296A11D5B
:10074000B11DD2CF789484B5826084BD84B58160B8
:1007500084BD85B5826085BD85B5816085BD80918C
:100760006E00816080936E00109281008091810004
:1007700082608093810080918100816080938100FC
:10078000809180008160809380008091B1008460BE
:100790008093B1008091B00081608093B00080911F
:1007A0007A00846080937A0080917A0082608093DE
:1007B0007A0080917A00816080937A0080917A003B
:1007C000806880937A001092C10082E00E947902D2
:1007D00060E081E00E94390160E082E00E9439011E
:1007E00060E083E10E94390161E083E00E94390109
:1007F00061E084E00E9439010E946A0160935F0118
:1008000070936001809361019093620110926E0178
:1008100010926D0144244A9483E0582E612C712C6F
:1008200098EE892E93E0992EA12CB12CC3E0D0E054
:1008300002E010E024E0222E312C80916D01909195
:100840006E01892B81F460E080E00E941A038CE045
:1008500091E00E94C80160E084E00E940B0160E02A
:1008600083E00E940B0181E00E94E200813091054B
:1008700001F520916D0130916E01232BD1F49093FD
:100880006E0180936D0160E080E00E941A0388E1B0
:1008900091E00E94C80110926C0110926B010E94BD
:1008A0006A01609367017093680180936901909376
:1008B0006A0180916D0190916E01019709F01DC14F
:1008C00025E420937C0080917A00806480937A00F4
:1008D00080917A0086FDFCCFA0917800809179000C
:1008E000B82F29E030E00E945C06A30192010E942B
:1008F0000C066901309366012093650161E080E098
:100900000E941A03C6010E942F0361E081E00E9449
:100910001A0387E291E00E94C8010E946A01C09018
:100920006701D0906801E0906901F0906A016C194C
:100930007D098E099F09A50194010E942B0669017A
:1009400030936401209363012F30310524F061E07E
:1009500084E00E940B0161E084E00E941A03C6015A
:100960000E942F030E946A01C0906701D090680125
:10097000E0906901F0906A016C197D098E099F0968
:1009800060327E448105910520F0D0936E01C093C2
:100990006D0182E00E94E2007C0181E0E816F10432
:1009A000B1F580916B0190916C01892B81F50E94CA
:1009B0006A0120915F013091600140916101509185
:1009C0006201621B730B840B950B683E73408105BB
:1009D0009105E8F0C0906501D0906601D0925A016F
:1009E000C092590161E08DE00E941A03C6010E9485
:1009F0002F03F0926C01E0926B010E946A016093F8
:100A00005F0170936001809361019093620182E0C5
:100A10000E94E2000197B1F580916B0190916C0109
:100A2000019781F50E946A01C0905F01D09060013A
:100A3000E0906101F09062016C197D098E099F09B7
:100A4000683E734081059105E8F0E0906501F09003
:100A50006601F0925C01E0925B0161E08EE00E9431
:100A60001A03C7010E942F0310936C0100936B01BE
:100A70000E946A0160935F0170936001809361013D
:100A80009093620182E00E94E2000197B1F58091AB
:100A90006B0190916C01029781F50E946A01C090F0
:100AA0005F01D0906001E0906101F09062016C19EB
:100AB0007D098E099F09683E734081059105E8F024
:100AC000D0936C01C0936B01E0906501F0906601DA
:100AD000F0925E01E0925D0161E08FE00E941A03F6
:100AE000C7010E942F030E946A0160935F01709307
:100AF0006001809361019093620181E00E94E200B5
:100B0000019781F480916B0190916C01039751F4EE
:100B10000E94710210936E0100936D0130926C017E
:100B200020926B0180916D0190916E010297F1F41A
:100B30008091590190915A01039761F580915B0171
:100B400090915C01059731F580915D0190915E0176
:100B5000089701F560E080E00E941A038BE291E0C3
:100B60000E94C80161E083E00E940B0180916D0149
:100B700090916E01039731F40E94710210926E0100
:100B800010926D0180E090E0892B09F456CE0E940E
:100B9000000053CE60E080E00E941A0388E391E0F9
:100BA0000E94C80161E080E00E941A0383E491E0A2
:100BB0000E94C80161E084E00E940B0182E00E9473
:100BC000E200019799F680916B0190916C01049776
:100BD00069F6D0936E01C0936D01C8CFEFE6F1E0E6
:100BE0001382128284E091E0918380838DE084837C
:100BF0008FEF85838CE086838BE087838AE0808714
:100C000089E0818788E08287138614861586168698
:100C1000178681E00C947902052E97FB1EF4009450
:100C20000E94230657FD07D00E942B0607FC03D025
:100C30004EF40C94230650954095309521953F4FE6
:100C40004F4F5F4F089590958095709561957F4FB8
:100C50008F4F9F4F0895A1E21A2EAA1BBB1BFD01C7
:100C60000DC0AA1FBB1FEE1FFF1FA217B307E4078B
:100C7000F50720F0A21BB30BE40BF50B661F771FE3
:100C8000881F991F1A9469F76095709580959095C3
:100C90009B01AC01BD01CF010895A29FB001B39F9C
:100CA000C001A39F700D811D1124911DB29F700D75
:100CB000811D1124911D08950E944D06B7FF0895CE
:100CC000821B930B0895EE0FFF1F0590F491E02D0A
:060CD0000994F894FFCF27
:100CD6000000000029038C007701760170756C73A3
:100CE6006520696E69636F00696E6772657365205A
:100CF600636F6469676F0020543A0063616A61201C
:100D06006162696572746100494E434F52524543B0
:100D1600544F0070756C73323A72657365740000D7
:00000001FF
