:020000040000FA
:100000000C945D000C9485000C9485000C94850084
:100010000C9485000C9485000C9485000C9485004C
:100020000C9485000C9485000C9485000C9485003C
:100030000C9485000C9485000C9485000C9485002C
:100040000C94A5030C9485000C9485000C948500F9
:100050000C9485000C9485000C9485000C9485000C
:100060000C9485000C94850000000008000201003B
:100070000003040700000000000000000000000072
:10008000250028002B0000000000240027002A0083
:10009000040404040404040402020202020203032E
:1000A0000303030301020408102040800102040836
:1000B0001020010204081020700511241FBECFEF8C
:1000C000D8E0DEBFCDBF11E0A0E0B1E0E6EFFFE099
:1000D00002C005900D92A033B107D9F721E0A0E34B
:1000E000B1E001C01D92A136B207E1F710E0CDE505
:1000F000D0E004C02197FE010E94F307CC35D10760
:10010000C9F70E94EF030C94F9070C94000090E0EB
:10011000FC01EC55FF4F249180579F4FFC018491C7
:10012000882399F090E0880F991FFC01EA57FF4F50
:10013000A591B491FC01E458FF4F859194918FB73C
:10014000F894EC91E22BEC938FBF0895AF92BF929D
:10015000CF92DF92EF92FF920F931F93CF93DF9393
:100160006C017B018B01040F151FEB015E01AE18C2
:10017000BF08C017D10759F06991D601ED91FC91E4
:100180000190F081E02DC6010995892B79F7C50111
:10019000DF91CF911F910F91FF90EF90DF90CF9063
:1001A000BF90AF90089590E0FC01E859FF4F249173
:1001B000FC01EC55FF4F3491FC01E057FF4FE491F7
:1001C000EE23C9F0222339F0233001F1A8F42130C5
:1001D00019F1223029F1F0E0EE0FFF1FE458FF4F34
:1001E000A591B4918FB7F894EC91611126C0309528
:1001F0003E233C938FBF08952730A9F02830C9F0E3
:10020000243049F7809180008F7D03C08091800069
:100210008F7780938000DFCF84B58F7784BDDBCF6D
:1002200084B58F7DFBCF8091B0008F778093B00035
:10023000D2CF8091B0008F7DF9CF3E2BDACF0895D9
:1002400090E080E00895FC0101900020E9F73197EB
:10025000AF01481B590BBC0189E491E00C94A60046
:100260008F929F92AF92BF920F931F93CF93DF9382
:10027000CDB7DEB7A1970FB6F894DEBF0FBECDBFE6
:1002800019A2423008F44AE08E010F5D1F4F842E00
:10029000912CB12CA12CA50194010E94D107E62F2D
:1002A000B901CA01EA30F4F4E05DD801EE938D01A2
:1002B000232B242B252B79F790E080E0109719F061
:1002C000CD010E942301A1960FB6F894DEBF0FBEA8
:1002D000CDBFDF91CF911F910F91BF90AF909F90B5
:1002E0008F900895E95CE1CFCF93DF93EC0160E05C
:1002F0008E810E94D30061E08E810E94D30060E075
:100300008E810E94D3008BE891E00197F1F7DF9195
:10031000CF910895CF92DF92EF92FF920F931F93A8
:10032000CF93DF936C017C0187E0E80EF11CD0E0F5
:10033000C0E0062F10E0B8010C2E02C0759567953D
:100340000A94E2F76170F70181917F010E94D30066
:100350002196C430D10579F7C601DF91CF911F9165
:100360000F91FF90EF90DF90CF900C947401CF929B
:10037000DF92EF92FF920F931F93CF93DF93EC01E5
:10038000F62E642F8C810E94D3008D818F3F19F04F
:1003900060E00E94D3000F2D10E08F8584FF25C000
:1003A0006E0187E0C80ED11CF12CE12CB8010E2C97
:1003B00002C0759567950A94E2F76170F601819124
:1003C0006F010E94D300FFEFEF1AFF0A88E0E816E2
:1003D000F10461F7CE01DF91CF911F910F91FF9052
:1003E000EF90DF90CF900C947401B80184E0759584
:1003F00067958A95E1F7CE010E948A016F2DCE01A3
:10040000DF91CF911F910F91FF90EF90DF90CF90F0
:100410000C948A0140E0682F89E491E00C94B701C4
:10042000CF93DF93823029F4909158019860909394
:10043000580180935C0110925D0180E480935E011D
:1004400080E180935F0180E58093600180914D01A0
:100450000E94870080914E018F3F11F00E9487001B
:1004600080914F010E948700C9E4D1E09E01295488
:1004700031408091580184FD0AC084E090E02196CB
:10048000281739073CF48E810E948700EFCF88E05F
:1004900090E0F5CF8BE39DE00197F1F760E080916C
:1004A0004D010E94D30060E080914F010E94D30073
:1004B00080914E018F3F19F060E00E94D30080913F
:1004C000580184FD39C063E089E491E00E948A010B
:1004D000CBE4D6E4CE010197F1F763E089E491E043
:1004E0000E948A012197F1F763E089E491E00E947C
:1004F0008A0183E592E00197F1F762E089E491E0F7
:100500000E948A018091580180620E940A0284E060
:10051000809359018CE00E940A0281E00E940A0245
:100520008BE39FE10197F1F782E080935A0186E027
:10053000DF91CF910C940A0280620E940A028BE440
:1005400096E40197F1F78091580180620E940A02B7
:1005500083E592E00197F1F78091580180620E9453
:100560000A02D0CF90915C01691710F06FEF690F0C
:10057000E62FF0E0E75BFE4F9489890F80680C94CA
:100580000A0241E00E94B70181E090E008954F9295
:100590005F926F927F928F929F92AF92BF92CF9213
:1005A000DF92EF92FF920F931F93CF936B017C0129
:1005B000742EAC019B010E94CC07882399F08CE03B
:1005C00091E0CF911F910F91FF90EF90DF90CF902E
:1005D000BF90AF909F908F907F906F905F904F9063
:1005E0000C94230146015701E894B7F82FEF3FEF31
:1005F0004FE75FE7C501B4010E94CC0781110DC030
:100600002FEF3FEF4FE75FE7C501B4010E94FB0505
:1006100018161CF480E191E0D4CF2FEF3FEF4FE7A5
:100620005FE4C701B6010E945A0718161CF484E162
:1006300091E0C7CF2FEF3FEF4FE75FECC701B60167
:100640000E94FB0587FDF3CF20E030E0A901C70140
:10065000B6010E94FB0510E000E087FF0CC041E0FE
:100660006DE289E491E00E94B701F7FAF094F7F89F
:10067000F09401E010E0C0E060E070E080E09FE313
:100680007C1641F020E030E040E251E40E94000698
:10069000CF5FF6CFA70196010E948F054B015C0149
:1006A0000E9479062B013C014AE00E943001080FAC
:1006B000191FCC23C9F1C301B2010E94A8069B01F6
:1006C000AC01C501B4010E948E054B015C0141E003
:1006D0006EE289E491E00E94B7010F5F1F4FC150A5
:1006E00018F120E030E040E251E4C501B4010E947D
:1006F0005F072B013C010E9479064B01B12CA12C14
:100700004AE0C501B4010E943001080F191FC5015C
:10071000B4010E94A8069B01AC01C301B2010E9472
:100720008E054B015C01DBCFC801CF911F910F916A
:10073000FF90EF90DF90CF90BF90AF909F908F9001
:100740007F906F905F904F9008951F920F920FB619
:100750000F9211242F933F938F939F93AF93BF9347
:100760008091350190913601A0913701B091380107
:100770003091340123E0230F2D3758F50196A11D48
:10078000B11D209334018093350190933601A093DD
:100790003701B09338018091300190913101A091DF
:1007A0003201B09133010196A11DB11D809330013A
:1007B00090933101A0933201B0933301BF91AF9177
:1007C0009F918F913F912F910F900FBE0F901F908F
:1007D000189526E8230F0296A11DB11DD2CF78945B
:1007E00084B5826084BD84B5816084BD85B5826036
:1007F00085BD85B5816085BD80916E0081608093E7
:100800006E0010928100809181008260809381004F
:10081000809181008160809381008091800081605F
:10082000809380008091B10084608093B1008091BA
:10083000B00081608093B00080917A0084608093E2
:100840007A0080917A00826080937A0080917A00A9
:10085000816080937A0080917A00806880937A002A
:100860001092C10082E00E94100280E4782E90E095
:10087000E92E90E0F92EC1E0D0E002E010E023E0A4
:10088000C22ED12C8091470190914801892BB9F457
:100890002FB7F8948091350190913601A0913701DE
:1008A000B09138012FBF8093430190934401A093EE
:1008B0004501B0934601D0934801C093470170921F
:1008C0007C0080917A00806480937A0080917A0025
:1008D00086FDFCCF8091780060917900762F682F9B
:1008E000072E000C880B990B0E94AA0660933F010B
:1008F00070934001809341019093420120E030E0E9
:1009000040EA50E40E945F0720E030EC4FE754E4F7
:100910000E94000660933B0170933C0180933D016F
:1009200090933E0120E030E048EC52E40E945F07E3
:100930000E94720670933A01609339012FB7F894C0
:100940008091350190913601A0913701B091380125
:100950002FBF409143015091440160914501709136
:100960004601841B950BA60BB70B883E9340A1054F
:10097000B10508F4AEC060E080E00E94B20288E1F8
:1009800091E00E94230160E082E00E94B202609147
:100990003F0170914001809141019091420142E0FC
:1009A0000E94C70261E080E00E94B2028BE191E008
:1009B0000E94230161E082E00E94B20260913B014B
:1009C00070913C0180913D0190913E0142E00E9476
:1009D000C70261E088E00E94B2028EE191E00E94CD
:1009E000230161E08AE00E94B20280903901909078
:1009F0003A01092C000CAA08BB084AE0C501B40161
:100A0000B7FE0EC041E06DE289E491E00E94B701BB
:100A100066277727CB01681979098A099B094AE07B
:100A20000E9430012FB7F8948091350190913601E2
:100A3000A0913701B09138012FBF8093430190936B
:100A40004401A0934501B0934601809139019091F2
:100A50003A018336910594F48091470190914801C1
:100A6000019761F461E08AE00E94B20281E291E0C4
:100A70000E9423011093480100934701809139019E
:100A800090913A01099794F480914701909148011F
:100A9000029761F461E08AE00E94B20281E291E093
:100AA0000E942301D0924801C092470180913901F0
:100AB00090913A018436910524F0D0934801C09377
:100AC00047010A978935910520F410934801009356
:100AD0004701E114F10409F4D5CE0E940000D2CE02
:100AE000E9E4F1E01382128284E091E09183808353
:100AF0008DE084838FEF85838CE086838BE0878312
:100B00008AE0808789E0818788E08287138614865F
:100B100015861686178681E00C9410025058BB2764
:100B2000AA270E94A6050C9420070E94120738F0FD
:100B30000E94190720F039F49F3F19F426F40C9411
:100B40000F070EF4E095E7FB0C940907E92F0E94CC
:100B5000310758F3BA17620773078407950720F027
:100B600079F4A6F50C9453070EF4E0950B2EBA2FEA
:100B7000A02D0B01B90190010C01CA01A0011124A3
:100B8000FF27591B99F0593F50F4503E68F11A164F
:100B9000F040A22F232F342F4427585FF3CF4695E0
:100BA00037952795A795F0405395C9F77EF41F1602
:100BB000BA0B620B730B840BBAF09150A1F0FF0FCC
:100BC000BB1F661F771F881FC2F70EC0BA0F621FB8
:100BD000731F841F48F4879577956795B795F795A8
:100BE0009E3F08F0B0CF9395880F08F09927EE0F3D
:100BF0009795879508950E94E50608F481E0089589
:100C00000E9414060C9420070E94190758F00E94B5
:100C1000120740F029F45F3F29F00C9409075111A5
:100C20000C9454070C940F070E94310768F3992322
:100C3000B1F3552391F3951B550BBB27AA276217D8
:100C40007307840738F09F5F5F4F220F331F441FE5
:100C5000AA1FA9F335D00E2E3AF0E0E832D0915019
:100C60005040E695001CCAF72BD0FE2F29D0660F06
:100C7000771F881FBB1F261737074807AB07B0E849
:100C800009F0BB0B802DBF01FF2793585F4F3AF04F
:100C90009E3F510578F00C9409070C9454075F3F70
:100CA000E4F3983ED4F3869577956795B795F795D5
:100CB0009F5FC9F7880F911D9695879597F90895BD
:100CC000E1E0660F771F881FBB1F62177307840759
:100CD000BA0720F0621B730B840BBA0BEE1F88F768
:100CE000E09508950E9479066894B1110C94540718
:100CF00008950E94390788F09F5798F0B92F9927D7
:100D0000B751B0F0E1F0660F771F881F991F1AF0F6
:100D1000BA95C9F714C0B13091F00E945307B1E001
:100D200008950C945307672F782F8827B85F39F000
:100D3000B93FCCF3869577956795B395D9F73EF48F
:100D400090958095709561957F4F8F4F9F4F089537
:100D5000E89409C097FB3EF4909580957095619555
:100D60007F4F8F4F9F4F9923A9F0F92F96E9BB270B
:100D70009395F695879577956795B795F111F8CF87
:100D8000FAF4BB0F11F460FF1BC06F5F7F4F8F4FF2
:100D90009F4F16C0882311F096E911C0772321F0E8
:100DA0009EE8872F762F05C0662371F096E8862F80
:100DB00070E060E02AF09A95660F771F881FDAF7D7
:100DC000880F9695879597F90895990F0008550F04
:100DD000AA0BE0E8FEEF16161706E807F907C0F0C1
:100DE00012161306E407F50798F0621B730B840BC9
:100DF000950B39F40A2661F0232B242B252B21F4A3
:100E000008950A2609F4A140A6958FEF811D811D42
:100E1000089597F99F6780E870E060E008959FEF7C
:100E200080EC089500240A94161617061806090681
:100E3000089500240A941216130614060506089550
:100E4000092E0394000C11F4882352F0BB0F40F4D8
:100E5000BF2B11F460FF04C06F5F7F4F8F4F9F4F18
:100E6000089557FD9058440F551F59F05F3F71F09A
:100E70004795880F97FB991F61F09F3F79F0879501
:100E80000895121613061406551FF2CF4695F1DF8A
:100E900008C0161617061806991FF1CF869571051A
:100EA000610508940895E894BB2766277727CB014E
:100EB00097F908950E94E50608F48FEF08950E94BF
:100EC00072070C9420070E94120738F00E9419073D
:100ED00020F0952311F00C9409070C940F071124AE
:100EE0000C9454070E94310770F3959FC1F3950F3E
:100EF00050E0551F629FF001729FBB27F00DB11D9E
:100F0000639FAA27F00DB11DAA1F649F6627B00D2D
:100F1000A11D661F829F2227B00DA11D621F739F16
:100F2000B00DA11D621F839FA00D611D221F749F24
:100F30003327A00D611D231F849F600D211D822F6B
:100F4000762F6A2F11249F5750409AF0F1F0882392
:100F50004AF0EE0FFF1FBB1F661F771F881F9150BF
:100F60005040A9F79E3F510580F00C9409070C945E
:100F700054075F3FE4F3983ED4F3869577956795E1
:100F8000B795F795E7959F5FC1F7FE2B880F911DE9
:100F90009695879597F908950E94E506880B990B19
:100FA0000895A1E21A2EAA1BBB1BFD010DC0AA1FAA
:100FB000BB1FEE1FFF1FA217B307E407F50720F0C2
:100FC000A21BB30BE40BF50B661F771F881F991F3D
:100FD0001A9469F760957095809590959B01AC0186
:100FE000BD01CF010895EE0FFF1F0590F491E02D94
:100FF0000994F894FFCF00000000C102A600200170
:101000001F016E616E00696E66006F766600633A5E
:1010100000763A00743A0020202020202020202052
:061020002020202020002A
:107E0000112484B714BE81FFF0D085E080938100F7
:107E100082E08093C00088E18093C10086E0809377
:107E2000C20080E18093C4008EE0C9D0259A86E02C
:107E300020E33CEF91E0309385002093840096BBD3
:107E4000B09BFECF1D9AA8958150A9F7CC24DD24C4
:107E500088248394B5E0AB2EA1E19A2EF3E0BF2EE7
:107E6000A2D0813461F49FD0082FAFD0023811F036
:107E7000013811F484E001C083E08DD089C08234E0
:107E800011F484E103C0853419F485E0A6D080C0E4
:107E9000853579F488D0E82EFF2485D0082F10E0AE
:107EA000102F00270E291F29000F111F8ED06801E7
:107EB0006FC0863521F484E090D080E0DECF843638
:107EC00009F040C070D06FD0082F6DD080E0C81688
:107ED00080E7D80618F4F601B7BEE895C0E0D1E017
:107EE00062D089930C17E1F7F0E0CF16F0E7DF06D8
:107EF00018F0F601B7BEE89568D007B600FCFDCFD4
:107F0000A601A0E0B1E02C9130E011968C91119780
:107F100090E0982F8827822B932B1296FA010C0160
:107F200087BEE89511244E5F5F4FF1E0A038BF0790
:107F300051F7F601A7BEE89507B600FCFDCF97BE46
:107F4000E89526C08437B1F42ED02DD0F82E2BD052
:107F50003CD0F601EF2C8F010F5F1F4F84911BD097
:107F6000EA94F801C1F70894C11CD11CFA94CF0C13
:107F7000D11C0EC0853739F428D08EE10CD085E9AC
:107F80000AD08FE07ACF813511F488E018D01DD067
:107F900080E101D065CF982F8091C00085FFFCCF94
:107FA0009093C60008958091C00087FFFCCF809118
:107FB000C00084FD01C0A8958091C6000895E0E648
:107FC000F0E098E1908380830895EDDF803219F02E
:107FD00088E0F5DFFFCF84E1DECF1F93182FE3DFCA
:107FE0001150E9F7F2DF1F91089580E0E8DFEE27F6
:047FF000FF270994CA
:027FFE00040479
:00000001FF
